:020000020000FC
:100000000FEF0DBF08E00DBF00E007B90FEF08B913
:100010000FEF04B90AB900E005B90BB91FE720E0FA
:100020003FE740E0772706B11017E9F30E94570039
:1000300006B11017C1F30E945700102F00FF0E9455
:100040002E0001FF0E94370002FF0E94400003FFC4
:100050000E944700349B0E944E00E5CF239520313B
:1000600009F420E0622F6295642B6BB908952A95FC
:100070002F3F09F42FE0622F6295642B6BB908952E
:100080004395403109F440E0642F6BB908954A95D7
:100090004F3F09F44FE0642F6BB90895722F740F2E
:1000A000703119F470E175B9089575B908955FEF6D
:1000B0005A955030E9F75FEF5A955030E9F75FEF06
:1000C0005A955030E9F75FEF5A955030E9F70895A7
:00000001FF
