:020000020000FC
:100000000FEF0DBF08E00DBF00E007B90FEF08B913
:100010000FEF04B90AB900E005B90BB913E020E00D
:100020003CE040E00E9417000E942A00FBCF06B18E
:1000300003701017E1F30E94510006B1037010170E
:10004000B1F3102F00FF0E943D0001FF0E9442000B
:1000500025B9089506B103703017E1F30E945100ED
:1000600006B103703017B1F3302F02FF0E94470032
:1000700003FF0E944C004BB908952395203109F4E9
:1000800020E008952A952F3F09F42FE00895439525
:10009000403109F440E008954A954F3F09F44FE09C
:1000A00008955FEF5A955030E9F74FEF5A95503069
:1000B000E9F75FEF5A955030E9F75FEF5A95503006
:0400C000E9F70895BF
:00000001FF
