:020000020000FC
:100000000FEF0DBF08E00DBF00E007B90FEF08B913
:100010000FEF04B90AB900E005B90BB91FE720E0FA
:100020003FE740E0772706B11017E9F30E945D0033
:1000300006B11017C1F30E945D00102F00FF0E944F
:100040002E0001FF0E943A0002FF0E94460003FFBB
:100050000E944D00349B0E945400E5CF239520312F
:1000600009F420E0622F660F660F660F660F642B9F
:100070006BB908952A952F3F09F42FE0622F660F80
:10008000660F660F660F642B6BB908954395403178
:1000900009F440E0642F6BB908954A954F3F09F485
:1000A0004FE0642F6BB90895722F740F703119F4FB
:1000B00070E175B9089575B908955FEF5A9550309C
:1000C000E9F75FEF5A955030E9F75FEF5A955030F6
:0C00D000E9F75FEF5A955030E9F708950A
:00000001FF
